{
  "_format": "hh-sol-artifact-1",
  "contractName": "Marketplace",
  "sourceName": "src/backend/contracts/Marketplace.sol",
  "abi": [
    {
      "inputs": [
        {
          "internalType": "uint256",
          "name": "_feePercent",
          "type": "uint256"
        }
      ],
      "stateMutability": "nonpayable",
      "type": "constructor"
    },
    {
      "anonymous": false,
      "inputs": [
        {
          "indexed": false,
          "internalType": "uint256",
          "name": "itemId",
          "type": "uint256"
        },
        {
          "indexed": true,
          "internalType": "address",
          "name": "nft",
          "type": "address"
        },
        {
          "indexed": false,
          "internalType": "uint256",
          "name": "tokenId",
          "type": "uint256"
        },
        {
          "indexed": false,
          "internalType": "uint256",
          "name": "price",
          "type": "uint256"
        },
        {
          "indexed": true,
          "internalType": "address",
          "name": "seller",
          "type": "address"
        },
        {
          "indexed": true,
          "internalType": "address",
          "name": "buyer",
          "type": "address"
        }
      ],
      "name": "Bought",
      "type": "event"
    },
    {
      "anonymous": false,
      "inputs": [
        {
          "indexed": false,
          "internalType": "uint256",
          "name": "itemId",
          "type": "uint256"
        },
        {
          "indexed": true,
          "internalType": "address",
          "name": "nft",
          "type": "address"
        },
        {
          "indexed": false,
          "internalType": "uint256",
          "name": "tokenId",
          "type": "uint256"
        },
        {
          "indexed": false,
          "internalType": "uint256",
          "name": "price",
          "type": "uint256"
        },
        {
          "indexed": true,
          "internalType": "address",
          "name": "seller",
          "type": "address"
        }
      ],
      "name": "Offered",
      "type": "event"
    },
    {
      "inputs": [],
      "name": "biditemcount",
      "outputs": [
        {
          "internalType": "uint256",
          "name": "",
          "type": "uint256"
        }
      ],
      "stateMutability": "view",
      "type": "function"
    },
    {
      "inputs": [
        {
          "internalType": "uint256",
          "name": "",
          "type": "uint256"
        }
      ],
      "name": "biditems",
      "outputs": [
        {
          "internalType": "uint256",
          "name": "biditemId",
          "type": "uint256"
        },
        {
          "internalType": "contract IERC721",
          "name": "nft",
          "type": "address"
        },
        {
          "internalType": "uint256",
          "name": "tokenId",
          "type": "uint256"
        },
        {
          "internalType": "uint256",
          "name": "baseprice",
          "type": "uint256"
        },
        {
          "internalType": "address payable",
          "name": "beneficiary",
          "type": "address"
        },
        {
          "internalType": "bool",
          "name": "sold",
          "type": "bool"
        },
        {
          "internalType": "uint256",
          "name": "auctionEndTime",
          "type": "uint256"
        },
        {
          "internalType": "address",
          "name": "highestBidder",
          "type": "address"
        },
        {
          "internalType": "uint256",
          "name": "highestBid",
          "type": "uint256"
        }
      ],
      "stateMutability": "view",
      "type": "function"
    },
    {
      "inputs": [],
      "name": "feeAccount",
      "outputs": [
        {
          "internalType": "address payable",
          "name": "",
          "type": "address"
        }
      ],
      "stateMutability": "view",
      "type": "function"
    },
    {
      "inputs": [],
      "name": "feePercent",
      "outputs": [
        {
          "internalType": "uint256",
          "name": "",
          "type": "uint256"
        }
      ],
      "stateMutability": "view",
      "type": "function"
    },
    {
      "inputs": [
        {
          "internalType": "uint256",
          "name": "_itemId",
          "type": "uint256"
        }
      ],
      "name": "getTotalPrice",
      "outputs": [
        {
          "internalType": "uint256",
          "name": "",
          "type": "uint256"
        }
      ],
      "stateMutability": "view",
      "type": "function"
    },
    {
      "inputs": [],
      "name": "itemCount",
      "outputs": [
        {
          "internalType": "uint256",
          "name": "",
          "type": "uint256"
        }
      ],
      "stateMutability": "view",
      "type": "function"
    },
    {
      "inputs": [
        {
          "internalType": "uint256",
          "name": "",
          "type": "uint256"
        }
      ],
      "name": "items",
      "outputs": [
        {
          "internalType": "uint256",
          "name": "itemId",
          "type": "uint256"
        },
        {
          "internalType": "contract IERC721",
          "name": "nft",
          "type": "address"
        },
        {
          "internalType": "uint256",
          "name": "tokenId",
          "type": "uint256"
        },
        {
          "internalType": "uint256",
          "name": "price",
          "type": "uint256"
        },
        {
          "internalType": "address payable",
          "name": "seller",
          "type": "address"
        },
        {
          "internalType": "bool",
          "name": "sold",
          "type": "bool"
        }
      ],
      "stateMutability": "view",
      "type": "function"
    },
    {
      "inputs": [
        {
          "internalType": "contract IERC721",
          "name": "_nft",
          "type": "address"
        },
        {
          "internalType": "uint256",
          "name": "_tokenId",
          "type": "uint256"
        },
        {
          "internalType": "uint256",
          "name": "_price",
          "type": "uint256"
        },
        {
          "internalType": "uint256",
          "name": "_auctiontime",
          "type": "uint256"
        }
      ],
      "name": "makeBidItem",
      "outputs": [],
      "stateMutability": "nonpayable",
      "type": "function"
    },
    {
      "inputs": [
        {
          "internalType": "contract IERC721",
          "name": "_nft",
          "type": "address"
        },
        {
          "internalType": "uint256",
          "name": "_tokenId",
          "type": "uint256"
        },
        {
          "internalType": "uint256",
          "name": "_price",
          "type": "uint256"
        }
      ],
      "name": "makeItem",
      "outputs": [],
      "stateMutability": "nonpayable",
      "type": "function"
    },
    {
      "inputs": [
        {
          "internalType": "uint256",
          "name": "_biditemId",
          "type": "uint256"
        }
      ],
      "name": "purchaseBidItem",
      "outputs": [],
      "stateMutability": "payable",
      "type": "function"
    },
    {
      "inputs": [
        {
          "internalType": "uint256",
          "name": "_itemId",
          "type": "uint256"
        }
      ],
      "name": "purchaseItem",
      "outputs": [],
      "stateMutability": "payable",
      "type": "function"
    }
  ],
  "bytecode": "0x60c06040523480156200001157600080fd5b5060405162001b8538038062001b8583398181016040528101906200003791906200009c565b60016000819055503373ffffffffffffffffffffffffffffffffffffffff1660808173ffffffffffffffffffffffffffffffffffffffff1660601b815250508060a0818152505050620000ec565b6000815190506200009681620000d2565b92915050565b600060208284031215620000af57600080fd5b6000620000bf8482850162000085565b91505092915050565b6000819050919050565b620000dd81620000c8565b8114620000e957600080fd5b50565b60805160601c60a051611a5b6200012a6000396000818161099b0152610a4c015260008181610496015281816109710152610d2d0152611a5b6000f3fe60806040526004361061009c5760003560e01c8063bfb231d211610064578063bfb231d214610167578063ca7dd375146101a9578063cc7ad352146101e6578063d38ea5bf1461022b578063d56dec2a14610247578063fa00afc7146102725761009c565b8063069eb676146100a157806312e80020146100bd57806365e17c9d146100e65780636bfb0d01146101115780637fd6f15c1461013c575b600080fd5b6100bb60048036038101906100b691906112e6565b61029b565b005b3480156100c957600080fd5b506100e460048036038101906100df9190611283565b610676565b005b3480156100f257600080fd5b506100fb61096f565b604051610108919061142c565b60405180910390f35b34801561011d57600080fd5b50610126610993565b604051610133919061153e565b60405180910390f35b34801561014857600080fd5b50610151610999565b60405161015e919061153e565b60405180910390f35b34801561017357600080fd5b5061018e600480360381019061018991906112e6565b6109bd565b6040516101a096959493929190611559565b60405180910390f35b3480156101b557600080fd5b506101d060048036038101906101cb91906112e6565b610a46565b6040516101dd919061153e565b60405180910390f35b3480156101f257600080fd5b5061020d600480360381019061020891906112e6565b610aa9565b604051610222999897969594939291906115ba565b60405180910390f35b610245600480360381019061024091906112e6565b610b64565b005b34801561025357600080fd5b5061025c610f32565b604051610269919061153e565b60405180910390f35b34801561027e57600080fd5b5061029960048036038101906102949190611234565b610f38565b005b600260005414156102e1576040517f08c379a00000000000000000000000000000000000000000000000000000000081526004016102d8906114fe565b60405180910390fd5b6002600081905550600060046000838152602001908152602001600020905060008211801561031257506002548211155b610351576040517f08c379a0000000000000000000000000000000000000000000000000000000008152600401610348906114de565b60405180910390fd5b8060040160149054906101000a900460ff16156103a3576040517f08c379a000000000000000000000000000000000000000000000000000000000815260040161039a9061151e565b60405180910390fd5b42816005015410156105ac5760018160040160146101000a81548160ff021916908315150217905550600073ffffffffffffffffffffffffffffffffffffffff168160060160009054906101000a900473ffffffffffffffffffffffffffffffffffffffff1673ffffffffffffffffffffffffffffffffffffffff16141561042a576105a7565b8060040160009054906101000a900473ffffffffffffffffffffffffffffffffffffffff1673ffffffffffffffffffffffffffffffffffffffff166108fc600183600701546104799190611770565b9081150290604051600060405180830381858888f19350505050507f000000000000000000000000000000000000000000000000000000000000000073ffffffffffffffffffffffffffffffffffffffff166108fc60019081150290604051600060405180830381858888f19350505050508060010160009054906101000a900473ffffffffffffffffffffffffffffffffffffffff1673ffffffffffffffffffffffffffffffffffffffff166323b872dd308360060160009054906101000a900473ffffffffffffffffffffffffffffffffffffffff1684600201546040518463ffffffff1660e01b815260040161057493929190611447565b600060405180830381600087803b15801561058e57600080fd5b505af11580156105a2573d6000803e3d6000fd5b505050505b61066a565b8060060160009054906101000a900473ffffffffffffffffffffffffffffffffffffffff1673ffffffffffffffffffffffffffffffffffffffff166108fc82600701549081150290604051600060405180830381858888f1935050505050338160060160006101000a81548173ffffffffffffffffffffffffffffffffffffffff021916908373ffffffffffffffffffffffffffffffffffffffff160217905550670de0b6b3a7640000346106619190611716565b81600701819055505b50600160008190555050565b600260005414156106bc576040517f08c379a00000000000000000000000000000000000000000000000000000000081526004016106b3906114fe565b60405180910390fd5b600260008190555060008211610707576040517f08c379a00000000000000000000000000000000000000000000000000000000081526004016106fe9061149e565b60405180910390fd5b6002600081548092919061071a90611834565b91905055508373ffffffffffffffffffffffffffffffffffffffff166323b872dd3330866040518463ffffffff1660e01b815260040161075c93929190611447565b600060405180830381600087803b15801561077657600080fd5b505af115801561078a573d6000803e3d6000fd5b5050505060405180610120016040528060025481526020018573ffffffffffffffffffffffffffffffffffffffff1681526020018481526020018381526020013373ffffffffffffffffffffffffffffffffffffffff16815260200160001515815260200142836107fb919061168f565b8152602001600073ffffffffffffffffffffffffffffffffffffffff168152602001838152506004600060025481526020019081526020016000206000820151816000015560208201518160010160006101000a81548173ffffffffffffffffffffffffffffffffffffffff021916908373ffffffffffffffffffffffffffffffffffffffff160217905550604082015181600201556060820151816003015560808201518160040160006101000a81548173ffffffffffffffffffffffffffffffffffffffff021916908373ffffffffffffffffffffffffffffffffffffffff16021790555060a08201518160040160146101000a81548160ff02191690831515021790555060c0820151816005015560e08201518160060160006101000a81548173ffffffffffffffffffffffffffffffffffffffff021916908373ffffffffffffffffffffffffffffffffffffffff1602179055506101008201518160070155905050600160008190555050505050565b7f000000000000000000000000000000000000000000000000000000000000000081565b60015481565b7f000000000000000000000000000000000000000000000000000000000000000081565b60036020528060005260406000206000915090508060000154908060010160009054906101000a900473ffffffffffffffffffffffffffffffffffffffff16908060020154908060030154908060040160009054906101000a900473ffffffffffffffffffffffffffffffffffffffff16908060040160149054906101000a900460ff16905086565b600060647f00000000000000000000000000000000000000000000000000000000000000006064610a77919061168f565b6003600085815260200190815260200160002060030154610a989190611716565b610aa291906116e5565b9050919050565b60046020528060005260406000206000915090508060000154908060010160009054906101000a900473ffffffffffffffffffffffffffffffffffffffff16908060020154908060030154908060040160009054906101000a900473ffffffffffffffffffffffffffffffffffffffff16908060040160149054906101000a900460ff16908060050154908060060160009054906101000a900473ffffffffffffffffffffffffffffffffffffffff16908060070154905089565b60026000541415610baa576040517f08c379a0000000000000000000000000000000000000000000000000000000008152600401610ba1906114fe565b60405180910390fd5b60026000819055506000610bbd82610a46565b90506000600360008481526020019081526020016000209050600083118015610be857506001548311155b610c27576040517f08c379a0000000000000000000000000000000000000000000000000000000008152600401610c1e906114de565b60405180910390fd5b81341015610c6a576040517f08c379a0000000000000000000000000000000000000000000000000000000008152600401610c61906114be565b60405180910390fd5b8060040160149054906101000a900460ff1615610cbc576040517f08c379a0000000000000000000000000000000000000000000000000000000008152600401610cb39061147e565b60405180910390fd5b8060040160009054906101000a900473ffffffffffffffffffffffffffffffffffffffff1673ffffffffffffffffffffffffffffffffffffffff166108fc82600301549081150290604051600060405180830381858888f19350505050158015610d2a573d6000803e3d6000fd5b507f000000000000000000000000000000000000000000000000000000000000000073ffffffffffffffffffffffffffffffffffffffff166108fc826003015484610d759190611770565b9081150290604051600060405180830381858888f19350505050158015610da0573d6000803e3d6000fd5b5060018160040160146101000a81548160ff0219169083151502179055508060010160009054906101000a900473ffffffffffffffffffffffffffffffffffffffff1673ffffffffffffffffffffffffffffffffffffffff166323b872dd303384600201546040518463ffffffff1660e01b8152600401610e2393929190611447565b600060405180830381600087803b158015610e3d57600080fd5b505af1158015610e51573d6000803e3d6000fd5b505050503373ffffffffffffffffffffffffffffffffffffffff168160040160009054906101000a900473ffffffffffffffffffffffffffffffffffffffff1673ffffffffffffffffffffffffffffffffffffffff168260010160009054906101000a900473ffffffffffffffffffffffffffffffffffffffff1673ffffffffffffffffffffffffffffffffffffffff167f8b4c9c8a607d67b321582dd8461041b1dc2ceeca70c8b7f37f8e02095cf2e76d8685600201548660030154604051610f1d93929190611647565b60405180910390a45050600160008190555050565b60025481565b60026000541415610f7e576040517f08c379a0000000000000000000000000000000000000000000000000000000008152600401610f75906114fe565b60405180910390fd5b600260008190555060008111610fc9576040517f08c379a0000000000000000000000000000000000000000000000000000000008152600401610fc09061149e565b60405180910390fd5b60016000815480929190610fdc90611834565b91905055508273ffffffffffffffffffffffffffffffffffffffff166323b872dd3330856040518463ffffffff1660e01b815260040161101e93929190611447565b600060405180830381600087803b15801561103857600080fd5b505af115801561104c573d6000803e3d6000fd5b505050506040518060c0016040528060015481526020018473ffffffffffffffffffffffffffffffffffffffff1681526020018381526020018281526020013373ffffffffffffffffffffffffffffffffffffffff168152602001600015158152506003600060015481526020019081526020016000206000820151816000015560208201518160010160006101000a81548173ffffffffffffffffffffffffffffffffffffffff021916908373ffffffffffffffffffffffffffffffffffffffff160217905550604082015181600201556060820151816003015560808201518160040160006101000a81548173ffffffffffffffffffffffffffffffffffffffff021916908373ffffffffffffffffffffffffffffffffffffffff16021790555060a08201518160040160146101000a81548160ff0219169083151502179055509050503373ffffffffffffffffffffffffffffffffffffffff168373ffffffffffffffffffffffffffffffffffffffff167f655a0cf9c8db81512be9a76dc1c5ae5380b8816ce6ad659cd61b715e2999d59a60015485856040516111f593929190611647565b60405180910390a36001600081905550505050565b600081359050611219816119f7565b92915050565b60008135905061122e81611a0e565b92915050565b60008060006060848603121561124957600080fd5b60006112578682870161120a565b93505060206112688682870161121f565b92505060406112798682870161121f565b9150509250925092565b6000806000806080858703121561129957600080fd5b60006112a78782880161120a565b94505060206112b88782880161121f565b93505060406112c98782880161121f565b92505060606112da8782880161121f565b91505092959194509250565b6000602082840312156112f857600080fd5b60006113068482850161121f565b91505092915050565b611318816117b6565b82525050565b611327816117a4565b82525050565b611336816117c8565b82525050565b61134581611810565b82525050565b600061135860118361167e565b9150611363826118db565b602082019050919050565b600061137b601f8361167e565b915061138682611904565b602082019050919050565b600061139e60338361167e565b91506113a98261192d565b604082019050919050565b60006113c160128361167e565b91506113cc8261197c565b602082019050919050565b60006113e4601f8361167e565b91506113ef826119a5565b602082019050919050565b600061140760108361167e565b9150611412826119ce565b602082019050919050565b61142681611806565b82525050565b6000602082019050611441600083018461130f565b92915050565b600060608201905061145c600083018661131e565b611469602083018561131e565b611476604083018461141d565b949350505050565b600060208201905081810360008301526114978161134b565b9050919050565b600060208201905081810360008301526114b78161136e565b9050919050565b600060208201905081810360008301526114d781611391565b9050919050565b600060208201905081810360008301526114f7816113b4565b9050919050565b60006020820190508181036000830152611517816113d7565b9050919050565b60006020820190508181036000830152611537816113fa565b9050919050565b6000602082019050611553600083018461141d565b92915050565b600060c08201905061156e600083018961141d565b61157b602083018861133c565b611588604083018761141d565b611595606083018661141d565b6115a2608083018561130f565b6115af60a083018461132d565b979650505050505050565b6000610120820190506115d0600083018c61141d565b6115dd602083018b61133c565b6115ea604083018a61141d565b6115f7606083018961141d565b611604608083018861130f565b61161160a083018761132d565b61161e60c083018661141d565b61162b60e083018561131e565b61163961010083018461141d565b9a9950505050505050505050565b600060608201905061165c600083018661141d565b611669602083018561141d565b611676604083018461141d565b949350505050565b600082825260208201905092915050565b600061169a82611806565b91506116a583611806565b9250827fffffffffffffffffffffffffffffffffffffffffffffffffffffffffffffffff038211156116da576116d961187d565b5b828201905092915050565b60006116f082611806565b91506116fb83611806565b92508261170b5761170a6118ac565b5b828204905092915050565b600061172182611806565b915061172c83611806565b9250817fffffffffffffffffffffffffffffffffffffffffffffffffffffffffffffffff04831182151516156117655761176461187d565b5b828202905092915050565b600061177b82611806565b915061178683611806565b9250828210156117995761179861187d565b5b828203905092915050565b60006117af826117e6565b9050919050565b60006117c1826117e6565b9050919050565b60008115159050919050565b60006117df826117a4565b9050919050565b600073ffffffffffffffffffffffffffffffffffffffff82169050919050565b6000819050919050565b600061181b82611822565b9050919050565b600061182d826117e6565b9050919050565b600061183f82611806565b91507fffffffffffffffffffffffffffffffffffffffffffffffffffffffffffffffff8214156118725761187161187d565b5b600182019050919050565b7f4e487b7100000000000000000000000000000000000000000000000000000000600052601160045260246000fd5b7f4e487b7100000000000000000000000000000000000000000000000000000000600052601260045260246000fd5b7f6974656d20616c726561647920736f6c64000000000000000000000000000000600082015250565b7f5072696365206d7573742062652067726561746572207468616e207a65726f00600082015250565b7f6e6f7420656e6f75676820657468657220746f20636f766572206974656d207060008201527f7269636520616e64206d61726b65742066656500000000000000000000000000602082015250565b7f6974656d20646f65736e27742065786973740000000000000000000000000000600082015250565b7f5265656e7472616e637947756172643a207265656e7472616e742063616c6c00600082015250565b7f4e465420616c726561647920736f6c6400000000000000000000000000000000600082015250565b611a00816117d4565b8114611a0b57600080fd5b50565b611a1781611806565b8114611a2257600080fd5b5056fea2646970667358221220c0ba396d957bfe5fc584c2650d1b3773993cbcedb62f9ce2ffbf7ac26e1014e464736f6c63430008040033",
  "linkReferences": {},
  "deployedLinkReferences": {}
}