{
  "_format": "hh-sol-artifact-1",
  "contractName": "NFT",
  "sourceName": "src/backend/contracts/NFT.sol",
  "abi": [
    {
      "inputs": [],
      "stateMutability": "nonpayable",
      "type": "constructor"
    },
    {
      "anonymous": false,
      "inputs": [
        {
          "indexed": true,
          "internalType": "address",
          "name": "owner",
          "type": "address"
        },
        {
          "indexed": true,
          "internalType": "address",
          "name": "approved",
          "type": "address"
        },
        {
          "indexed": true,
          "internalType": "uint256",
          "name": "tokenId",
          "type": "uint256"
        }
      ],
      "name": "Approval",
      "type": "event"
    },
    {
      "anonymous": false,
      "inputs": [
        {
          "indexed": true,
          "internalType": "address",
          "name": "owner",
          "type": "address"
        },
        {
          "indexed": true,
          "internalType": "address",
          "name": "operator",
          "type": "address"
        },
        {
          "indexed": false,
          "internalType": "bool",
          "name": "approved",
          "type": "bool"
        }
      ],
      "name": "ApprovalForAll",
      "type": "event"
    },
    {
      "anonymous": false,
      "inputs": [
        {
          "indexed": true,
          "internalType": "address",
          "name": "from",
          "type": "address"
        },
        {
          "indexed": true,
          "internalType": "address",
          "name": "to",
          "type": "address"
        },
        {
          "indexed": true,
          "internalType": "uint256",
          "name": "tokenId",
          "type": "uint256"
        }
      ],
      "name": "Transfer",
      "type": "event"
    },
    {
      "inputs": [
        {
          "internalType": "address",
          "name": "to",
          "type": "address"
        },
        {
          "internalType": "uint256",
          "name": "tokenId",
          "type": "uint256"
        }
      ],
      "name": "approve",
      "outputs": [],
      "stateMutability": "nonpayable",
      "type": "function"
    },
    {
      "inputs": [
        {
          "internalType": "address",
          "name": "owner",
          "type": "address"
        }
      ],
      "name": "balanceOf",
      "outputs": [
        {
          "internalType": "uint256",
          "name": "",
          "type": "uint256"
        }
      ],
      "stateMutability": "view",
      "type": "function"
    },
    {
      "inputs": [
        {
          "internalType": "uint256",
          "name": "tokenId",
          "type": "uint256"
        }
      ],
      "name": "getApproved",
      "outputs": [
        {
          "internalType": "address",
          "name": "",
          "type": "address"
        }
      ],
      "stateMutability": "view",
      "type": "function"
    },
    {
      "inputs": [
        {
          "internalType": "address",
          "name": "owner",
          "type": "address"
        },
        {
          "internalType": "address",
          "name": "operator",
          "type": "address"
        }
      ],
      "name": "isApprovedForAll",
      "outputs": [
        {
          "internalType": "bool",
          "name": "",
          "type": "bool"
        }
      ],
      "stateMutability": "view",
      "type": "function"
    },
    {
      "inputs": [
        {
          "internalType": "address",
          "name": "",
          "type": "address"
        }
      ],
      "name": "listOfSeller",
      "outputs": [
        {
          "internalType": "uint256",
          "name": "",
          "type": "uint256"
        }
      ],
      "stateMutability": "view",
      "type": "function"
    },
    {
      "inputs": [
        {
          "internalType": "string",
          "name": "_tokenURI",
          "type": "string"
        }
      ],
      "name": "mint",
      "outputs": [
        {
          "internalType": "uint256",
          "name": "",
          "type": "uint256"
        }
      ],
      "stateMutability": "nonpayable",
      "type": "function"
    },
    {
      "inputs": [],
      "name": "name",
      "outputs": [
        {
          "internalType": "string",
          "name": "",
          "type": "string"
        }
      ],
      "stateMutability": "view",
      "type": "function"
    },
    {
      "inputs": [
        {
          "internalType": "uint256",
          "name": "tokenId",
          "type": "uint256"
        }
      ],
      "name": "ownerOf",
      "outputs": [
        {
          "internalType": "address",
          "name": "",
          "type": "address"
        }
      ],
      "stateMutability": "view",
      "type": "function"
    },
    {
      "inputs": [
        {
          "internalType": "address",
          "name": "from",
          "type": "address"
        },
        {
          "internalType": "address",
          "name": "to",
          "type": "address"
        },
        {
          "internalType": "uint256",
          "name": "tokenId",
          "type": "uint256"
        }
      ],
      "name": "safeTransferFrom",
      "outputs": [],
      "stateMutability": "nonpayable",
      "type": "function"
    },
    {
      "inputs": [
        {
          "internalType": "address",
          "name": "from",
          "type": "address"
        },
        {
          "internalType": "address",
          "name": "to",
          "type": "address"
        },
        {
          "internalType": "uint256",
          "name": "tokenId",
          "type": "uint256"
        },
        {
          "internalType": "bytes",
          "name": "_data",
          "type": "bytes"
        }
      ],
      "name": "safeTransferFrom",
      "outputs": [],
      "stateMutability": "nonpayable",
      "type": "function"
    },
    {
      "inputs": [
        {
          "internalType": "address",
          "name": "operator",
          "type": "address"
        },
        {
          "internalType": "bool",
          "name": "approved",
          "type": "bool"
        }
      ],
      "name": "setApprovalForAll",
      "outputs": [],
      "stateMutability": "nonpayable",
      "type": "function"
    },
    {
      "inputs": [
        {
          "internalType": "bytes4",
          "name": "interfaceId",
          "type": "bytes4"
        }
      ],
      "name": "supportsInterface",
      "outputs": [
        {
          "internalType": "bool",
          "name": "",
          "type": "bool"
        }
      ],
      "stateMutability": "view",
      "type": "function"
    },
    {
      "inputs": [],
      "name": "symbol",
      "outputs": [
        {
          "internalType": "string",
          "name": "",
          "type": "string"
        }
      ],
      "stateMutability": "view",
      "type": "function"
    },
    {
      "inputs": [],
      "name": "tokenCount",
      "outputs": [
        {
          "internalType": "uint256",
          "name": "",
          "type": "uint256"
        }
      ],
      "stateMutability": "view",
      "type": "function"
    },
    {
      "inputs": [
        {
          "internalType": "uint256",
          "name": "tokenId",
          "type": "uint256"
        }
      ],
      "name": "tokenURI",
      "outputs": [
        {
          "internalType": "string",
          "name": "",
          "type": "string"
        }
      ],
      "stateMutability": "view",
      "type": "function"
    },
    {
      "inputs": [
        {
          "internalType": "address",
          "name": "from",
          "type": "address"
        },
        {
          "internalType": "address",
          "name": "to",
          "type": "address"
        },
        {
          "internalType": "uint256",
          "name": "tokenId",
          "type": "uint256"
        }
      ],
      "name": "transferFrom",
      "outputs": [],
      "stateMutability": "nonpayable",
      "type": "function"
    }
  ],
  "bytecode": "0x60806040523480156200001157600080fd5b506040518060400160405280600381526020017f4e465400000000000000000000000000000000000000000000000000000000008152506040518060400160405280600381526020017f4e46540000000000000000000000000000000000000000000000000000000000815250816000908051906020019062000096929190620000b8565b508060019080519060200190620000af929190620000b8565b505050620001cd565b828054620000c69062000168565b90600052602060002090601f016020900481019282620000ea576000855562000136565b82601f106200010557805160ff191683800117855562000136565b8280016001018555821562000136579182015b828111156200013557825182559160200191906001019062000118565b5b50905062000145919062000149565b5090565b5b80821115620001645760008160009055506001016200014a565b5090565b600060028204905060018216806200018157607f821691505b602082108114156200019857620001976200019e565b5b50919050565b7f4e487b7100000000000000000000000000000000000000000000000000000000600052602260045260246000fd5b612cf180620001dd6000396000f3fe608060405234801561001057600080fd5b50600436106101005760003560e01c806395d89b4111610097578063b88d4fde11610066578063b88d4fde146102bf578063c87b56dd146102db578063d85d3d271461030b578063e985e9c51461033b57610100565b806395d89b41146102375780639f181b5e14610255578063a22cb46514610273578063a25424881461028f57610100565b806323b872dd116100d357806323b872dd1461019f57806342842e0e146101bb5780636352211e146101d757806370a082311461020757610100565b806301ffc9a71461010557806306fdde0314610135578063081812fc14610153578063095ea7b314610183575b600080fd5b61011f600480360381019061011a9190611d5d565b61036b565b60405161012c91906121a4565b60405180910390f35b61013d61044d565b60405161014a91906121bf565b60405180910390f35b61016d60048036038101906101689190611df0565b6104df565b60405161017a919061213d565b60405180910390f35b61019d60048036038101906101989190611d21565b610564565b005b6101b960048036038101906101b49190611c1b565b61067c565b005b6101d560048036038101906101d09190611c1b565b6106dc565b005b6101f160048036038101906101ec9190611df0565b6106fc565b6040516101fe919061213d565b60405180910390f35b610221600480360381019061021c9190611bb6565b6107ae565b60405161022e91906123e1565b60405180910390f35b61023f610866565b60405161024c91906121bf565b60405180910390f35b61025d6108f8565b60405161026a91906123e1565b60405180910390f35b61028d60048036038101906102889190611ce5565b6108fe565b005b6102a960048036038101906102a49190611bb6565b610914565b6040516102b691906123e1565b60405180910390f35b6102d960048036038101906102d49190611c6a565b61092c565b005b6102f560048036038101906102f09190611df0565b61098e565b60405161030291906121bf565b60405180910390f35b61032560048036038101906103209190611daf565b610ae0565b60405161033291906123e1565b60405180910390f35b61035560048036038101906103509190611bdf565b610bab565b60405161036291906121a4565b60405180910390f35b60007f80ac58cd000000000000000000000000000000000000000000000000000000007bffffffffffffffffffffffffffffffffffffffffffffffffffffffff1916827bffffffffffffffffffffffffffffffffffffffffffffffffffffffff1916148061043657507f5b5e139f000000000000000000000000000000000000000000000000000000007bffffffffffffffffffffffffffffffffffffffffffffffffffffffff1916827bffffffffffffffffffffffffffffffffffffffffffffffffffffffff1916145b80610446575061044582610c3f565b5b9050919050565b60606000805461045c90612637565b80601f016020809104026020016040519081016040528092919081815260200182805461048890612637565b80156104d55780601f106104aa576101008083540402835291602001916104d5565b820191906000526020600020905b8154815290600101906020018083116104b857829003601f168201915b5050505050905090565b60006104ea82610ca9565b610529576040517f08c379a000000000000000000000000000000000000000000000000000000000815260040161052090612361565b60405180910390fd5b6004600083815260200190815260200160002060009054906101000a900473ffffffffffffffffffffffffffffffffffffffff169050919050565b600061056f826106fc565b90508073ffffffffffffffffffffffffffffffffffffffff168373ffffffffffffffffffffffffffffffffffffffff1614156105e0576040517f08c379a00000000000000000000000000000000000000000000000000000000081526004016105d7906123a1565b60405180910390fd5b8073ffffffffffffffffffffffffffffffffffffffff166105ff610d15565b73ffffffffffffffffffffffffffffffffffffffff16148061062e575061062d81610628610d15565b610bab565b5b61066d576040517f08c379a0000000000000000000000000000000000000000000000000000000008152600401610664906122a1565b60405180910390fd5b6106778383610d1d565b505050565b61068d610687610d15565b82610dd6565b6106cc576040517f08c379a00000000000000000000000000000000000000000000000000000000081526004016106c3906123c1565b60405180910390fd5b6106d7838383610eb4565b505050565b6106f78383836040518060200160405280600081525061092c565b505050565b6000806002600084815260200190815260200160002060009054906101000a900473ffffffffffffffffffffffffffffffffffffffff169050600073ffffffffffffffffffffffffffffffffffffffff168173ffffffffffffffffffffffffffffffffffffffff1614156107a5576040517f08c379a000000000000000000000000000000000000000000000000000000000815260040161079c906122e1565b60405180910390fd5b80915050919050565b60008073ffffffffffffffffffffffffffffffffffffffff168273ffffffffffffffffffffffffffffffffffffffff16141561081f576040517f08c379a0000000000000000000000000000000000000000000000000000000008152600401610816906122c1565b60405180910390fd5b600360008373ffffffffffffffffffffffffffffffffffffffff1673ffffffffffffffffffffffffffffffffffffffff168152602001908152602001600020549050919050565b60606001805461087590612637565b80601f01602080910402602001604051908101604052809291908181526020018280546108a190612637565b80156108ee5780601f106108c3576101008083540402835291602001916108ee565b820191906000526020600020905b8154815290600101906020018083116108d157829003601f168201915b5050505050905090565b60075481565b610910610909610d15565b838361111b565b5050565b60086020528060005260406000206000915090505481565b61093d610937610d15565b83610dd6565b61097c576040517f08c379a0000000000000000000000000000000000000000000000000000000008152600401610973906123c1565b60405180910390fd5b61098884848484611288565b50505050565b606061099982610ca9565b6109d8576040517f08c379a00000000000000000000000000000000000000000000000000000000081526004016109cf90612341565b60405180910390fd5b60006006600084815260200190815260200160002080546109f890612637565b80601f0160208091040260200160405190810160405280929190818152602001828054610a2490612637565b8015610a715780601f10610a4657610100808354040283529160200191610a71565b820191906000526020600020905b815481529060010190602001808311610a5457829003601f168201915b505050505090506000610a826112e4565b9050600081511415610a98578192505050610adb565b600082511115610acd578082604051602001610ab5929190612119565b60405160208183030381529060405292505050610adb565b610ad6846112fb565b925050505b919050565b60006001600860003373ffffffffffffffffffffffffffffffffffffffff1673ffffffffffffffffffffffffffffffffffffffff16815260200190815260200160002054610b2e91906124c6565b600860003373ffffffffffffffffffffffffffffffffffffffff1673ffffffffffffffffffffffffffffffffffffffff1681526020019081526020016000208190555060076000815480929190610b849061269a565b9190505550610b95336007546113a2565b610ba1600754836113c0565b6007549050919050565b6000600560008473ffffffffffffffffffffffffffffffffffffffff1673ffffffffffffffffffffffffffffffffffffffff16815260200190815260200160002060008373ffffffffffffffffffffffffffffffffffffffff1673ffffffffffffffffffffffffffffffffffffffff16815260200190815260200160002060009054906101000a900460ff16905092915050565b60007f01ffc9a7000000000000000000000000000000000000000000000000000000007bffffffffffffffffffffffffffffffffffffffffffffffffffffffff1916827bffffffffffffffffffffffffffffffffffffffffffffffffffffffff1916149050919050565b60008073ffffffffffffffffffffffffffffffffffffffff166002600084815260200190815260200160002060009054906101000a900473ffffffffffffffffffffffffffffffffffffffff1673ffffffffffffffffffffffffffffffffffffffff1614159050919050565b600033905090565b816004600083815260200190815260200160002060006101000a81548173ffffffffffffffffffffffffffffffffffffffff021916908373ffffffffffffffffffffffffffffffffffffffff160217905550808273ffffffffffffffffffffffffffffffffffffffff16610d90836106fc565b73ffffffffffffffffffffffffffffffffffffffff167f8c5be1e5ebec7d5bd14f71427d1e84f3dd0314c0f7b2291e5b200ac8c7c3b92560405160405180910390a45050565b6000610de182610ca9565b610e20576040517f08c379a0000000000000000000000000000000000000000000000000000000008152600401610e1790612281565b60405180910390fd5b6000610e2b836106fc565b90508073ffffffffffffffffffffffffffffffffffffffff168473ffffffffffffffffffffffffffffffffffffffff161480610e9a57508373ffffffffffffffffffffffffffffffffffffffff16610e82846104df565b73ffffffffffffffffffffffffffffffffffffffff16145b80610eab5750610eaa8185610bab565b5b91505092915050565b8273ffffffffffffffffffffffffffffffffffffffff16610ed4826106fc565b73ffffffffffffffffffffffffffffffffffffffff1614610f2a576040517f08c379a0000000000000000000000000000000000000000000000000000000008152600401610f2190612201565b60405180910390fd5b600073ffffffffffffffffffffffffffffffffffffffff168273ffffffffffffffffffffffffffffffffffffffff161415610f9a576040517f08c379a0000000000000000000000000000000000000000000000000000000008152600401610f9190612241565b60405180910390fd5b610fa5838383611434565b610fb0600082610d1d565b6001600360008573ffffffffffffffffffffffffffffffffffffffff1673ffffffffffffffffffffffffffffffffffffffff1681526020019081526020016000206000828254611000919061254d565b925050819055506001600360008473ffffffffffffffffffffffffffffffffffffffff1673ffffffffffffffffffffffffffffffffffffffff168152602001908152602001600020600082825461105791906124c6565b92505081905550816002600083815260200190815260200160002060006101000a81548173ffffffffffffffffffffffffffffffffffffffff021916908373ffffffffffffffffffffffffffffffffffffffff160217905550808273ffffffffffffffffffffffffffffffffffffffff168473ffffffffffffffffffffffffffffffffffffffff167fddf252ad1be2c89b69c2b068fc378daa952ba7f163c4a11628f55a4df523b3ef60405160405180910390a4611116838383611439565b505050565b8173ffffffffffffffffffffffffffffffffffffffff168373ffffffffffffffffffffffffffffffffffffffff16141561118a576040517f08c379a000000000000000000000000000000000000000000000000000000000815260040161118190612261565b60405180910390fd5b80600560008573ffffffffffffffffffffffffffffffffffffffff1673ffffffffffffffffffffffffffffffffffffffff16815260200190815260200160002060008473ffffffffffffffffffffffffffffffffffffffff1673ffffffffffffffffffffffffffffffffffffffff16815260200190815260200160002060006101000a81548160ff0219169083151502179055508173ffffffffffffffffffffffffffffffffffffffff168373ffffffffffffffffffffffffffffffffffffffff167f17307eab39ab6107e8899845ad3d59bd9653f200f220920489ca2b5937696c318360405161127b91906121a4565b60405180910390a3505050565b611293848484610eb4565b61129f8484848461143e565b6112de576040517f08c379a00000000000000000000000000000000000000000000000000000000081526004016112d5906121e1565b60405180910390fd5b50505050565b606060405180602001604052806000815250905090565b606061130682610ca9565b611345576040517f08c379a000000000000000000000000000000000000000000000000000000000815260040161133c90612381565b60405180910390fd5b600061134f6112e4565b9050600081511161136f576040518060200160405280600081525061139a565b80611379846115d5565b60405160200161138a929190612119565b6040516020818303038152906040525b915050919050565b6113bc828260405180602001604052806000815250611782565b5050565b6113c982610ca9565b611408576040517f08c379a00000000000000000000000000000000000000000000000000000000081526004016113ff90612301565b60405180910390fd5b8060066000848152602001908152602001600020908051906020019061142f9291906119da565b505050565b505050565b505050565b600061145f8473ffffffffffffffffffffffffffffffffffffffff166117dd565b156115c8578373ffffffffffffffffffffffffffffffffffffffff1663150b7a02611488610d15565b8786866040518563ffffffff1660e01b81526004016114aa9493929190612158565b602060405180830381600087803b1580156114c457600080fd5b505af19250505080156114f557506040513d601f19601f820116820180604052508101906114f29190611d86565b60015b611578573d8060008114611525576040519150601f19603f3d011682016040523d82523d6000602084013e61152a565b606091505b50600081511415611570576040517f08c379a0000000000000000000000000000000000000000000000000000000008152600401611567906121e1565b60405180910390fd5b805181602001fd5b63150b7a0260e01b7bffffffffffffffffffffffffffffffffffffffffffffffffffffffff1916817bffffffffffffffffffffffffffffffffffffffffffffffffffffffff1916149150506115cd565b600190505b949350505050565b6060600082141561161d576040518060400160405280600181526020017f3000000000000000000000000000000000000000000000000000000000000000815250905061177d565b600082905060005b6000821461164f5780806116389061269a565b915050600a82611648919061251c565b9150611625565b60008167ffffffffffffffff811115611691577f4e487b7100000000000000000000000000000000000000000000000000000000600052604160045260246000fd5b6040519080825280601f01601f1916602001820160405280156116c35781602001600182028036833780820191505090505b5090505b60008514611776576001826116dc919061254d565b9150600a856116eb91906126e3565b60306116f791906124c6565b60f81b818381518110611733577f4e487b7100000000000000000000000000000000000000000000000000000000600052603260045260246000fd5b60200101907effffffffffffffffffffffffffffffffffffffffffffffffffffffffffffff1916908160001a905350600a8561176f919061251c565b94506116c7565b8093505050505b919050565b61178c8383611800565b611799600084848461143e565b6117d8576040517f08c379a00000000000000000000000000000000000000000000000000000000081526004016117cf906121e1565b60405180910390fd5b505050565b6000808273ffffffffffffffffffffffffffffffffffffffff163b119050919050565b600073ffffffffffffffffffffffffffffffffffffffff168273ffffffffffffffffffffffffffffffffffffffff161415611870576040517f08c379a000000000000000000000000000000000000000000000000000000000815260040161186790612321565b60405180910390fd5b61187981610ca9565b156118b9576040517f08c379a00000000000000000000000000000000000000000000000000000000081526004016118b090612221565b60405180910390fd5b6118c560008383611434565b6001600360008473ffffffffffffffffffffffffffffffffffffffff1673ffffffffffffffffffffffffffffffffffffffff168152602001908152602001600020600082825461191591906124c6565b92505081905550816002600083815260200190815260200160002060006101000a81548173ffffffffffffffffffffffffffffffffffffffff021916908373ffffffffffffffffffffffffffffffffffffffff160217905550808273ffffffffffffffffffffffffffffffffffffffff16600073ffffffffffffffffffffffffffffffffffffffff167fddf252ad1be2c89b69c2b068fc378daa952ba7f163c4a11628f55a4df523b3ef60405160405180910390a46119d660008383611439565b5050565b8280546119e690612637565b90600052602060002090601f016020900481019282611a085760008555611a4f565b82601f10611a2157805160ff1916838001178555611a4f565b82800160010185558215611a4f579182015b82811115611a4e578251825591602001919060010190611a33565b5b509050611a5c9190611a60565b5090565b5b80821115611a79576000816000905550600101611a61565b5090565b6000611a90611a8b84612421565b6123fc565b905082815260208101848484011115611aa857600080fd5b611ab38482856125f5565b509392505050565b6000611ace611ac984612452565b6123fc565b905082815260208101848484011115611ae657600080fd5b611af18482856125f5565b509392505050565b600081359050611b0881612c5f565b92915050565b600081359050611b1d81612c76565b92915050565b600081359050611b3281612c8d565b92915050565b600081519050611b4781612c8d565b92915050565b600082601f830112611b5e57600080fd5b8135611b6e848260208601611a7d565b91505092915050565b600082601f830112611b8857600080fd5b8135611b98848260208601611abb565b91505092915050565b600081359050611bb081612ca4565b92915050565b600060208284031215611bc857600080fd5b6000611bd684828501611af9565b91505092915050565b60008060408385031215611bf257600080fd5b6000611c0085828601611af9565b9250506020611c1185828601611af9565b9150509250929050565b600080600060608486031215611c3057600080fd5b6000611c3e86828701611af9565b9350506020611c4f86828701611af9565b9250506040611c6086828701611ba1565b9150509250925092565b60008060008060808587031215611c8057600080fd5b6000611c8e87828801611af9565b9450506020611c9f87828801611af9565b9350506040611cb087828801611ba1565b925050606085013567ffffffffffffffff811115611ccd57600080fd5b611cd987828801611b4d565b91505092959194509250565b60008060408385031215611cf857600080fd5b6000611d0685828601611af9565b9250506020611d1785828601611b0e565b9150509250929050565b60008060408385031215611d3457600080fd5b6000611d4285828601611af9565b9250506020611d5385828601611ba1565b9150509250929050565b600060208284031215611d6f57600080fd5b6000611d7d84828501611b23565b91505092915050565b600060208284031215611d9857600080fd5b6000611da684828501611b38565b91505092915050565b600060208284031215611dc157600080fd5b600082013567ffffffffffffffff811115611ddb57600080fd5b611de784828501611b77565b91505092915050565b600060208284031215611e0257600080fd5b6000611e1084828501611ba1565b91505092915050565b611e2281612581565b82525050565b611e3181612593565b82525050565b6000611e4282612483565b611e4c8185612499565b9350611e5c818560208601612604565b611e65816127d0565b840191505092915050565b6000611e7b8261248e565b611e8581856124aa565b9350611e95818560208601612604565b611e9e816127d0565b840191505092915050565b6000611eb48261248e565b611ebe81856124bb565b9350611ece818560208601612604565b80840191505092915050565b6000611ee76032836124aa565b9150611ef2826127e1565b604082019050919050565b6000611f0a6025836124aa565b9150611f1582612830565b604082019050919050565b6000611f2d601c836124aa565b9150611f388261287f565b602082019050919050565b6000611f506024836124aa565b9150611f5b826128a8565b604082019050919050565b6000611f736019836124aa565b9150611f7e826128f7565b602082019050919050565b6000611f96602c836124aa565b9150611fa182612920565b604082019050919050565b6000611fb96038836124aa565b9150611fc48261296f565b604082019050919050565b6000611fdc602a836124aa565b9150611fe7826129be565b604082019050919050565b6000611fff6029836124aa565b915061200a82612a0d565b604082019050919050565b6000612022602e836124aa565b915061202d82612a5c565b604082019050919050565b60006120456020836124aa565b915061205082612aab565b602082019050919050565b60006120686031836124aa565b915061207382612ad4565b604082019050919050565b600061208b602c836124aa565b915061209682612b23565b604082019050919050565b60006120ae602f836124aa565b91506120b982612b72565b604082019050919050565b60006120d16021836124aa565b91506120dc82612bc1565b604082019050919050565b60006120f46031836124aa565b91506120ff82612c10565b604082019050919050565b612113816125eb565b82525050565b60006121258285611ea9565b91506121318284611ea9565b91508190509392505050565b60006020820190506121526000830184611e19565b92915050565b600060808201905061216d6000830187611e19565b61217a6020830186611e19565b612187604083018561210a565b81810360608301526121998184611e37565b905095945050505050565b60006020820190506121b96000830184611e28565b92915050565b600060208201905081810360008301526121d98184611e70565b905092915050565b600060208201905081810360008301526121fa81611eda565b9050919050565b6000602082019050818103600083015261221a81611efd565b9050919050565b6000602082019050818103600083015261223a81611f20565b9050919050565b6000602082019050818103600083015261225a81611f43565b9050919050565b6000602082019050818103600083015261227a81611f66565b9050919050565b6000602082019050818103600083015261229a81611f89565b9050919050565b600060208201905081810360008301526122ba81611fac565b9050919050565b600060208201905081810360008301526122da81611fcf565b9050919050565b600060208201905081810360008301526122fa81611ff2565b9050919050565b6000602082019050818103600083015261231a81612015565b9050919050565b6000602082019050818103600083015261233a81612038565b9050919050565b6000602082019050818103600083015261235a8161205b565b9050919050565b6000602082019050818103600083015261237a8161207e565b9050919050565b6000602082019050818103600083015261239a816120a1565b9050919050565b600060208201905081810360008301526123ba816120c4565b9050919050565b600060208201905081810360008301526123da816120e7565b9050919050565b60006020820190506123f6600083018461210a565b92915050565b6000612406612417565b90506124128282612669565b919050565b6000604051905090565b600067ffffffffffffffff82111561243c5761243b6127a1565b5b612445826127d0565b9050602081019050919050565b600067ffffffffffffffff82111561246d5761246c6127a1565b5b612476826127d0565b9050602081019050919050565b600081519050919050565b600081519050919050565b600082825260208201905092915050565b600082825260208201905092915050565b600081905092915050565b60006124d1826125eb565b91506124dc836125eb565b9250827fffffffffffffffffffffffffffffffffffffffffffffffffffffffffffffffff0382111561251157612510612714565b5b828201905092915050565b6000612527826125eb565b9150612532836125eb565b92508261254257612541612743565b5b828204905092915050565b6000612558826125eb565b9150612563836125eb565b92508282101561257657612575612714565b5b828203905092915050565b600061258c826125cb565b9050919050565b60008115159050919050565b60007fffffffff0000000000000000000000000000000000000000000000000000000082169050919050565b600073ffffffffffffffffffffffffffffffffffffffff82169050919050565b6000819050919050565b82818337600083830152505050565b60005b83811015612622578082015181840152602081019050612607565b83811115612631576000848401525b50505050565b6000600282049050600182168061264f57607f821691505b6020821081141561266357612662612772565b5b50919050565b612672826127d0565b810181811067ffffffffffffffff82111715612691576126906127a1565b5b80604052505050565b60006126a5826125eb565b91507fffffffffffffffffffffffffffffffffffffffffffffffffffffffffffffffff8214156126d8576126d7612714565b5b600182019050919050565b60006126ee826125eb565b91506126f9836125eb565b92508261270957612708612743565b5b828206905092915050565b7f4e487b7100000000000000000000000000000000000000000000000000000000600052601160045260246000fd5b7f4e487b7100000000000000000000000000000000000000000000000000000000600052601260045260246000fd5b7f4e487b7100000000000000000000000000000000000000000000000000000000600052602260045260246000fd5b7f4e487b7100000000000000000000000000000000000000000000000000000000600052604160045260246000fd5b6000601f19601f8301169050919050565b7f4552433732313a207472616e7366657220746f206e6f6e20455243373231526560008201527f63656976657220696d706c656d656e7465720000000000000000000000000000602082015250565b7f4552433732313a207472616e736665722066726f6d20696e636f72726563742060008201527f6f776e6572000000000000000000000000000000000000000000000000000000602082015250565b7f4552433732313a20746f6b656e20616c7265616479206d696e74656400000000600082015250565b7f4552433732313a207472616e7366657220746f20746865207a65726f2061646460008201527f7265737300000000000000000000000000000000000000000000000000000000602082015250565b7f4552433732313a20617070726f766520746f2063616c6c657200000000000000600082015250565b7f4552433732313a206f70657261746f7220717565727920666f72206e6f6e657860008201527f697374656e7420746f6b656e0000000000000000000000000000000000000000602082015250565b7f4552433732313a20617070726f76652063616c6c6572206973206e6f74206f7760008201527f6e6572206e6f7220617070726f76656420666f7220616c6c0000000000000000602082015250565b7f4552433732313a2062616c616e636520717565727920666f7220746865207a6560008201527f726f206164647265737300000000000000000000000000000000000000000000602082015250565b7f4552433732313a206f776e657220717565727920666f72206e6f6e657869737460008201527f656e7420746f6b656e0000000000000000000000000000000000000000000000602082015250565b7f45524337323155524953746f726167653a2055524920736574206f66206e6f6e60008201527f6578697374656e7420746f6b656e000000000000000000000000000000000000602082015250565b7f4552433732313a206d696e7420746f20746865207a65726f2061646472657373600082015250565b7f45524337323155524953746f726167653a2055524920717565727920666f722060008201527f6e6f6e6578697374656e7420746f6b656e000000000000000000000000000000602082015250565b7f4552433732313a20617070726f76656420717565727920666f72206e6f6e657860008201527f697374656e7420746f6b656e0000000000000000000000000000000000000000602082015250565b7f4552433732314d657461646174613a2055524920717565727920666f72206e6f60008201527f6e6578697374656e7420746f6b656e0000000000000000000000000000000000602082015250565b7f4552433732313a20617070726f76616c20746f2063757272656e74206f776e6560008201527f7200000000000000000000000000000000000000000000000000000000000000602082015250565b7f4552433732313a207472616e736665722063616c6c6572206973206e6f74206f60008201527f776e6572206e6f7220617070726f766564000000000000000000000000000000602082015250565b612c6881612581565b8114612c7357600080fd5b50565b612c7f81612593565b8114612c8a57600080fd5b50565b612c968161259f565b8114612ca157600080fd5b50565b612cad816125eb565b8114612cb857600080fd5b5056fea26469706673582212200f6d32c1f1ca0da5eef9ad89a04444c5817dd67643bdc243639f9501c3525b9b64736f6c63430008040033",
  "linkReferences": {},
  "deployedLinkReferences": {}
}